:100000000C9424010C9438010C9438010C943801A0
:100010000C9438010C9438010C9438010C9438017C
:100020000C9438010C9438010C9438010C9438016C
:100030000C9438010C9438010C9438010C9438015C
:100040000C9438010C9438010C9438010C9438014C
:100050000C9438010C9438010C9438010C9437023C
:100060000C9438010C9438010C9438010C9438012C
:100070000C9438010C9438010C9438010C9438011C
:100080000C9438010C9438010C9438010C9438010C
:100090000C9438010C9438010C9438010C943801FC
:1000A0000C9438010C9438010C9438010C943801EC
:1000B0000C9438010C9438010C9438010C943801DC
:1000C0000C9438010C9438010C9438010C943801CC
:1000D0000C9438010C9438010C9438010C943801BC
:1000E0000C9438010C94A3010C949F010C947D0195
:1000F0000C9479010C949E010C9491010C9495013F
:100100000C9468010C9487010C9464010C945E01BA
:100110000C9499010C9470010C948B010C94730154
:100120000C9483010C946C0100000A0B02090C0D65
:100130000E0807030401000000000000000000009A
:1001400000000000000000000000000000000000AF
:10015000000000001211100000000000000000006C
:10016000000000000000000000000000000001028C
:1001700010202008081020401020408002010201B9
:100180000804020101020408102040808040201071
:1001900008040201800402018040201008040201CA
:1001A0000804020101020408102040800102040832
:1001B000102040800505050507050808080802020B
:1001C00002020A0A080804040404010101010101F1
:1001D00001010303030303030303040707070C0CD4
:1001E0000C0C0C0C0C0C020202020606060606069B
:1001F00006060B0B0B0B0B0B0B0B00002000230058
:10020000260029002C002F0032000001000003010D
:100210000601090100002200250028002B002E0005
:100220003100340002010000050108010B0100004B
:100230002100240027002A002D0030003300010196
:100240000000040107010A0111241FBECFEFD1E213
:10025000DEBFCDBF00E00CBF22E0A0E0B2E001C0F5
:100260001D92A930B207E1F70E945D030C9474035C
:100270000C94000061E08DE00C94A70161E08DE03A
:100280000E94E10164EF71E080E090E00E94B00222
:1002900060E08DE00E94E10164EF71E080E090E0B9
:1002A0000C94B0028150823108F048C0E82FF0E091
:1002B0008827EA58FC4F8F4F0C946C038091800084
:1002C0008F77809380000895809180008F7DF9CF93
:1002D00080918000877FF5CF84B58F7784BD0895A6
:1002E00084B58F7DFBCF8091B0008F778093B00075
:1002F00008958091B0008F7DF9CF809190008F7725
:10030000809390000895809190008F7DF9CF809127
:100310009000877FF5CF8091A0008F778093A00019
:1003200008958091A0008F7DF9CF8091A000877FF4
:10033000F5CF809120018F778093200108958091DF
:1003400020018F7DF9CF80912001877FF5CFCF935A
:10035000DF9390E0FC01E259FE4F24918C549E4FB4
:10036000FC0184918115C9F090E0880F991FFC0170
:10037000E25DFD4FA591B491FC01EC5EFD4FC5918E
:10038000D4919FB761110CC0F8948C912095822371
:100390008C938881282328839FBFDF91CF91089574
:1003A000623051F4F8943C91822F809583238C9392
:1003B0008881822B8883F0CFF8948C91822B8C9348
:1003C000EBCF1F93CF93DF93162F282F30E0F90147
:1003D000E85DFE4F8491F901E259FE4FD491F90195
:1003E000EC54FE4FC491C115A1F081110E9452013D
:1003F000EC2FF0E0EE0FFF1FEC5EFD4FA591B491E6
:100400009FB7F8948C91111108C0D095D823DC9334
:100410009FBFDF91CF911F9108958D2B8C93F8CFC3
:10042000CF93DF93282F30E0F901E85DFE4F8491F0
:10043000F901E259FE4FD491F901EC54FE4FC491F9
:10044000C11581F081110E945201EC2FF0E0EE0FF6
:10045000FF1FE650FE4FA591B491EC91ED2381E092
:10046000E11101C080E090E0DF91CF9108951F92EB
:100470001FB61F9211242F933F938F939F93AF9397
:10048000BF938091000290910102A0910202B0916D
:1004900003023091080223E0230F2D3750F5019617
:1004A000A11DB11D209308028093000290930102C8
:1004B000A0930202B093030280910402909105027E
:1004C000A0910602B09107020196A11DB11D809373
:1004D000040290930502A0930602B0930702BF9115
:1004E000AF919F918F913F912F911F901FBE1F90B1
:1004F000189526E8230F0296A11DB11DD3CF2FB763
:10050000F894609100027091010280910202909132
:1005100003022FBF08953FB7F89480910402909191
:100520000502A0910602B091070226B5A89B05C05E
:100530002F3F19F00196A11DB11D3FBFBA2FA92F62
:10054000982F8827BC01CD01620F711D811D911D5F
:1005500042E0660F771F881F991F4A95D1F70895CB
:100560008F929F92AF92BF92CF92DF92EF92FF92C3
:100570006B017C010E948B024B015C01C114D10410
:10058000E104F104E9F00E945C030E948B02681907
:1005900079098A099B09683E73408105910570F3CA
:1005A00021E0C21AD108E108F10888EE880E83E044
:1005B000981EA11CB11CC114D104E104F10429F757
:1005C000FF90EF90DF90CF90BF90AF909F908F9073
:1005D00008959C01029740F0220F331F220F331F12
:1005E000C90105970197F1F70895789484B5826061
:1005F00084BD84B5816084BD85B5826085BD85B5C7
:10060000816085BDEEE6F0E0808181608083E1E875
:10061000F0E01082808182608083808181608083AD
:10062000E0E8F0E0808181608083E1EBF0E08081B0
:1006300084608083E0EBF0E0808181608083E1E989
:10064000F0E0808182608083808181608083E0E946
:10065000F0E0808181608083E1EAF0E08081826067
:100660008083808181608083E0EAF0E08081816026
:100670008083E1E2F1E0808182608083808181601B
:100680008083E0E2F1E0808181608083EAE7F0E04E
:1006900080818460808380818260808380818160AA
:1006A00080838081806880831092C100089580E0FB
:1006B00090E008950895089508950E94F5020E941B
:1006C0005A030E943A01C0E0D0E00E943E01209708
:1006D000E1F30E940000F9CFEE0FFF1F881F8BBFD0
:1006E0000790F691E02D1994F894FFCF6C017001FA
:1006F0005E01640168019E01730179017D0183013E
:1007000087018B01910195019E0199019F01A30130
:00000001FF
